{
  "_format": "hh3-artifact-1",
  "contractName": "Registry",
  "sourceName": "contracts/Registry.sol",
  "abi": [
    {
      "inputs": [
        {
          "internalType": "address",
          "name": "_usdc",
          "type": "address"
        }
      ],
      "stateMutability": "nonpayable",
      "type": "constructor"
    },
    {
      "inputs": [],
      "name": "AntibodyExists",
      "type": "error"
    },
    {
      "inputs": [],
      "name": "AntibodyNotActive",
      "type": "error"
    },
    {
      "inputs": [],
      "name": "AntibodyNotFound",
      "type": "error"
    },
    {
      "inputs": [],
      "name": "InsufficientBalance",
      "type": "error"
    },
    {
      "inputs": [],
      "name": "InvalidAntibodyType",
      "type": "error"
    },
    {
      "inputs": [],
      "name": "InvalidConfidence",
      "type": "error"
    },
    {
      "inputs": [],
      "name": "InvalidSeverity",
      "type": "error"
    },
    {
      "inputs": [],
      "name": "InvalidVerdict",
      "type": "error"
    },
    {
      "inputs": [
        {
          "internalType": "address",
          "name": "owner",
          "type": "address"
        }
      ],
      "name": "OwnableInvalidOwner",
      "type": "error"
    },
    {
      "inputs": [
        {
          "internalType": "address",
          "name": "account",
          "type": "address"
        }
      ],
      "name": "OwnableUnauthorizedAccount",
      "type": "error"
    },
    {
      "inputs": [],
      "name": "ReentrancyGuardReentrantCall",
      "type": "error"
    },
    {
      "inputs": [
        {
          "internalType": "address",
          "name": "token",
          "type": "address"
        }
      ],
      "name": "SafeERC20FailedOperation",
      "type": "error"
    },
    {
      "inputs": [],
      "name": "ZeroAddress",
      "type": "error"
    },
    {
      "inputs": [],
      "name": "ZeroAmount",
      "type": "error"
    },
    {
      "anonymous": false,
      "inputs": [
        {
          "indexed": true,
          "internalType": "address",
          "name": "target",
          "type": "address"
        },
        {
          "indexed": true,
          "internalType": "bytes32",
          "name": "keccakId",
          "type": "bytes32"
        },
        {
          "indexed": true,
          "internalType": "address",
          "name": "publisher",
          "type": "address"
        }
      ],
      "name": "AddressBlocked",
      "type": "event"
    },
    {
      "anonymous": false,
      "inputs": [
        {
          "indexed": true,
          "internalType": "bytes32",
          "name": "keccakId",
          "type": "bytes32"
        },
        {
          "indexed": true,
          "internalType": "address",
          "name": "agent",
          "type": "address"
        },
        {
          "indexed": true,
          "internalType": "address",
          "name": "publisher",
          "type": "address"
        },
        {
          "indexed": false,
          "internalType": "address",
          "name": "tokenAddress",
          "type": "address"
        },
        {
          "indexed": false,
          "internalType": "uint256",
          "name": "tokenAmount",
          "type": "uint256"
        },
        {
          "indexed": false,
          "internalType": "uint256",
          "name": "originChainId",
          "type": "uint256"
        },
        {
          "indexed": false,
          "internalType": "uint256",
          "name": "publisherReward",
          "type": "uint256"
        },
        {
          "indexed": false,
          "internalType": "uint256",
          "name": "treasuryReward",
          "type": "uint256"
        },
        {
          "indexed": false,
          "internalType": "address",
          "name": "reviewer",
          "type": "address"
        }
      ],
      "name": "AntibodyMatched",
      "type": "event"
    },
    {
      "anonymous": false,
      "inputs": [
        {
          "indexed": true,
          "internalType": "bytes32",
          "name": "keccakId",
          "type": "bytes32"
        },
        {
          "indexed": true,
          "internalType": "uint32",
          "name": "immSeq",
          "type": "uint32"
        },
        {
          "indexed": true,
          "internalType": "address",
          "name": "publisher",
          "type": "address"
        },
        {
          "indexed": false,
          "internalType": "uint8",
          "name": "abType",
          "type": "uint8"
        },
        {
          "indexed": false,
          "internalType": "uint8",
          "name": "flavor",
          "type": "uint8"
        },
        {
          "indexed": false,
          "internalType": "uint8",
          "name": "verdict",
          "type": "uint8"
        },
        {
          "indexed": false,
          "internalType": "uint8",
          "name": "severity",
          "type": "uint8"
        },
        {
          "indexed": false,
          "internalType": "uint8",
          "name": "confidence",
          "type": "uint8"
        },
        {
          "indexed": false,
          "internalType": "address",
          "name": "reviewer",
          "type": "address"
        },
        {
          "indexed": false,
          "internalType": "bytes32",
          "name": "primaryMatcherHash",
          "type": "bytes32"
        },
        {
          "indexed": false,
          "internalType": "bytes32",
          "name": "evidenceCid",
          "type": "bytes32"
        },
        {
          "indexed": false,
          "internalType": "bytes32",
          "name": "contextHash",
          "type": "bytes32"
        },
        {
          "indexed": false,
          "internalType": "bytes32",
          "name": "embeddingHash",
          "type": "bytes32"
        },
        {
          "indexed": false,
          "internalType": "bytes32",
          "name": "attestation",
          "type": "bytes32"
        },
        {
          "indexed": false,
          "internalType": "uint256",
          "name": "stake",
          "type": "uint256"
        },
        {
          "indexed": false,
          "internalType": "uint64",
          "name": "stakeLockUntil",
          "type": "uint64"
        },
        {
          "indexed": false,
          "internalType": "uint64",
          "name": "expiresAt",
          "type": "uint64"
        },
        {
          "indexed": false,
          "internalType": "uint64",
          "name": "createdAt",
          "type": "uint64"
        },
        {
          "indexed": false,
          "internalType": "bool",
          "name": "isSeeded",
          "type": "bool"
        }
      ],
      "name": "AntibodyPublished",
      "type": "event"
    },
    {
      "anonymous": false,
      "inputs": [
        {
          "indexed": true,
          "internalType": "bytes32",
          "name": "keccakId",
          "type": "bytes32"
        },
        {
          "indexed": true,
          "internalType": "address",
          "name": "publisher",
          "type": "address"
        },
        {
          "indexed": false,
          "internalType": "uint256",
          "name": "stakeAmount",
          "type": "uint256"
        }
      ],
      "name": "AntibodySlashed",
      "type": "event"
    },
    {
      "anonymous": false,
      "inputs": [
        {
          "indexed": true,
          "internalType": "bytes32",
          "name": "bytecodeHash",
          "type": "bytes32"
        },
        {
          "indexed": true,
          "internalType": "bytes32",
          "name": "keccakId",
          "type": "bytes32"
        },
        {
          "indexed": true,
          "internalType": "address",
          "name": "publisher",
          "type": "address"
        }
      ],
      "name": "BytecodeBlocked",
      "type": "event"
    },
    {
      "anonymous": false,
      "inputs": [
        {
          "indexed": true,
          "internalType": "bytes4",
          "name": "selector",
          "type": "bytes4"
        },
        {
          "indexed": true,
          "internalType": "bytes32",
          "name": "keccakId",
          "type": "bytes32"
        },
        {
          "indexed": true,
          "internalType": "address",
          "name": "publisher",
          "type": "address"
        }
      ],
      "name": "CallPatternBlocked",
      "type": "event"
    },
    {
      "anonymous": false,
      "inputs": [
        {
          "indexed": true,
          "internalType": "address",
          "name": "agent",
          "type": "address"
        },
        {
          "indexed": true,
          "internalType": "bytes32",
          "name": "antibodyId",
          "type": "bytes32"
        },
        {
          "indexed": true,
          "internalType": "address",
          "name": "tokenAddress",
          "type": "address"
        },
        {
          "indexed": false,
          "internalType": "bool",
          "name": "wasMatch",
          "type": "bool"
        },
        {
          "indexed": false,
          "internalType": "uint256",
          "name": "fee",
          "type": "uint256"
        },
        {
          "indexed": false,
          "internalType": "uint256",
          "name": "originChainId",
          "type": "uint256"
        },
        {
          "indexed": false,
          "internalType": "uint256",
          "name": "tokenAmount",
          "type": "uint256"
        },
        {
          "indexed": false,
          "internalType": "uint64",
          "name": "timestamp",
          "type": "uint64"
        }
      ],
      "name": "CheckSettled",
      "type": "event"
    },
    {
      "anonymous": false,
      "inputs": [
        {
          "indexed": true,
          "internalType": "address",
          "name": "operator",
          "type": "address"
        },
        {
          "indexed": false,
          "internalType": "uint256",
          "name": "amount",
          "type": "uint256"
        }
      ],
      "name": "Deposited",
      "type": "event"
    },
    {
      "anonymous": false,
      "inputs": [
        {
          "indexed": true,
          "internalType": "bytes32",
          "name": "taintSetId",
          "type": "bytes32"
        },
        {
          "indexed": true,
          "internalType": "bytes32",
          "name": "keccakId",
          "type": "bytes32"
        },
        {
          "indexed": true,
          "internalType": "address",
          "name": "publisher",
          "type": "address"
        }
      ],
      "name": "GraphTaintAdded",
      "type": "event"
    },
    {
      "anonymous": false,
      "inputs": [
        {
          "indexed": true,
          "internalType": "address",
          "name": "previousOwner",
          "type": "address"
        },
        {
          "indexed": true,
          "internalType": "address",
          "name": "newOwner",
          "type": "address"
        }
      ],
      "name": "OwnershipTransferred",
      "type": "event"
    },
    {
      "anonymous": false,
      "inputs": [
        {
          "indexed": true,
          "internalType": "bytes32",
          "name": "keccakId",
          "type": "bytes32"
        },
        {
          "indexed": true,
          "internalType": "uint32",
          "name": "immSeq",
          "type": "uint32"
        }
      ],
      "name": "Seeded",
      "type": "event"
    },
    {
      "anonymous": false,
      "inputs": [
        {
          "indexed": true,
          "internalType": "uint8",
          "name": "flavor",
          "type": "uint8"
        },
        {
          "indexed": true,
          "internalType": "bytes32",
          "name": "keccakId",
          "type": "bytes32"
        },
        {
          "indexed": true,
          "internalType": "address",
          "name": "publisher",
          "type": "address"
        }
      ],
      "name": "SemanticPatternAdded",
      "type": "event"
    },
    {
      "anonymous": false,
      "inputs": [
        {
          "indexed": true,
          "internalType": "bytes32",
          "name": "keccakId",
          "type": "bytes32"
        },
        {
          "indexed": true,
          "internalType": "address",
          "name": "publisher",
          "type": "address"
        },
        {
          "indexed": false,
          "internalType": "uint256",
          "name": "amount",
          "type": "uint256"
        },
        {
          "indexed": false,
          "internalType": "uint64",
          "name": "releasedAt",
          "type": "uint64"
        }
      ],
      "name": "StakeReleased",
      "type": "event"
    },
    {
      "anonymous": false,
      "inputs": [
        {
          "indexed": true,
          "internalType": "address",
          "name": "sweeper",
          "type": "address"
        },
        {
          "indexed": false,
          "internalType": "uint256",
          "name": "numReleased",
          "type": "uint256"
        },
        {
          "indexed": false,
          "internalType": "uint256",
          "name": "bountyPaid",
          "type": "uint256"
        }
      ],
      "name": "StakeSwept",
      "type": "event"
    },
    {
      "anonymous": false,
      "inputs": [
        {
          "indexed": true,
          "internalType": "address",
          "name": "to",
          "type": "address"
        },
        {
          "indexed": false,
          "internalType": "uint256",
          "name": "amount",
          "type": "uint256"
        }
      ],
      "name": "TreasuryWithdrawn",
      "type": "event"
    },
    {
      "anonymous": false,
      "inputs": [
        {
          "indexed": true,
          "internalType": "address",
          "name": "operator",
          "type": "address"
        },
        {
          "indexed": false,
          "internalType": "uint256",
          "name": "amount",
          "type": "uint256"
        }
      ],
      "name": "Withdrew",
      "type": "event"
    },
    {
      "inputs": [],
      "name": "BPS_DENOMINATOR",
      "outputs": [
        {
          "internalType": "uint16",
          "name": "",
          "type": "uint16"
        }
      ],
      "stateMutability": "view",
      "type": "function"
    },
    {
      "inputs": [],
      "name": "CHECK_FEE",
      "outputs": [
        {
          "internalType": "uint256",
          "name": "",
          "type": "uint256"
        }
      ],
      "stateMutability": "view",
      "type": "function"
    },
    {
      "inputs": [],
      "name": "PUBLISHER_REWARD_BPS",
      "outputs": [
        {
          "internalType": "uint16",
          "name": "",
          "type": "uint16"
        }
      ],
      "stateMutability": "view",
      "type": "function"
    },
    {
      "inputs": [],
      "name": "PUBLISH_STAKE",
      "outputs": [
        {
          "internalType": "uint256",
          "name": "",
          "type": "uint256"
        }
      ],
      "stateMutability": "view",
      "type": "function"
    },
    {
      "inputs": [],
      "name": "STAKE_LOCK_DURATION",
      "outputs": [
        {
          "internalType": "uint64",
          "name": "",
          "type": "uint64"
        }
      ],
      "stateMutability": "view",
      "type": "function"
    },
    {
      "inputs": [],
      "name": "SWEEP_BATCH_SIZE",
      "outputs": [
        {
          "internalType": "uint256",
          "name": "",
          "type": "uint256"
        }
      ],
      "stateMutability": "view",
      "type": "function"
    },
    {
      "inputs": [],
      "name": "SWEEP_BOUNTY",
      "outputs": [
        {
          "internalType": "uint256",
          "name": "",
          "type": "uint256"
        }
      ],
      "stateMutability": "view",
      "type": "function"
    },
    {
      "inputs": [],
      "name": "TREASURY_REWARD_BPS",
      "outputs": [
        {
          "internalType": "uint16",
          "name": "",
          "type": "uint16"
        }
      ],
      "stateMutability": "view",
      "type": "function"
    },
    {
      "inputs": [
        {
          "internalType": "address",
          "name": "",
          "type": "address"
        }
      ],
      "name": "balances",
      "outputs": [
        {
          "internalType": "uint256",
          "name": "",
          "type": "uint256"
        }
      ],
      "stateMutability": "view",
      "type": "function"
    },
    {
      "inputs": [
        {
          "internalType": "bytes32",
          "name": "antibodyId",
          "type": "bytes32"
        },
        {
          "internalType": "address",
          "name": "tokenAddress",
          "type": "address"
        },
        {
          "internalType": "uint256",
          "name": "tokenAmount",
          "type": "uint256"
        },
        {
          "internalType": "uint256",
          "name": "originChainId",
          "type": "uint256"
        }
      ],
      "name": "check",
      "outputs": [
        {
          "internalType": "bool",
          "name": "settled",
          "type": "bool"
        }
      ],
      "stateMutability": "nonpayable",
      "type": "function"
    },
    {
      "inputs": [
        {
          "internalType": "uint8",
          "name": "abType",
          "type": "uint8"
        },
        {
          "internalType": "uint8",
          "name": "flavor",
          "type": "uint8"
        },
        {
          "internalType": "bytes32",
          "name": "primaryMatcherHash",
          "type": "bytes32"
        },
        {
          "internalType": "address",
          "name": "publisher",
          "type": "address"
        }
      ],
      "name": "computeKeccakId",
      "outputs": [
        {
          "internalType": "bytes32",
          "name": "",
          "type": "bytes32"
        }
      ],
      "stateMutability": "pure",
      "type": "function"
    },
    {
      "inputs": [
        {
          "internalType": "uint256",
          "name": "amount",
          "type": "uint256"
        }
      ],
      "name": "deposit",
      "outputs": [],
      "stateMutability": "nonpayable",
      "type": "function"
    },
    {
      "inputs": [],
      "name": "getActiveStakeCount",
      "outputs": [
        {
          "internalType": "uint256",
          "name": "",
          "type": "uint256"
        }
      ],
      "stateMutability": "view",
      "type": "function"
    },
    {
      "inputs": [
        {
          "internalType": "bytes32",
          "name": "keccakId",
          "type": "bytes32"
        }
      ],
      "name": "getAntibody",
      "outputs": [
        {
          "components": [
            {
              "internalType": "bytes32",
              "name": "primaryMatcherHash",
              "type": "bytes32"
            },
            {
              "internalType": "bytes32",
              "name": "evidenceCid",
              "type": "bytes32"
            },
            {
              "internalType": "bytes32",
              "name": "contextHash",
              "type": "bytes32"
            },
            {
              "internalType": "bytes32",
              "name": "embeddingHash",
              "type": "bytes32"
            },
            {
              "internalType": "bytes32",
              "name": "attestation",
              "type": "bytes32"
            },
            {
              "internalType": "address",
              "name": "publisher",
              "type": "address"
            },
            {
              "internalType": "uint64",
              "name": "stakeLockUntil",
              "type": "uint64"
            },
            {
              "internalType": "uint32",
              "name": "immSeq",
              "type": "uint32"
            },
            {
              "internalType": "address",
              "name": "reviewer",
              "type": "address"
            },
            {
              "internalType": "uint64",
              "name": "expiresAt",
              "type": "uint64"
            },
            {
              "internalType": "uint8",
              "name": "abType",
              "type": "uint8"
            },
            {
              "internalType": "uint8",
              "name": "flavor",
              "type": "uint8"
            },
            {
              "internalType": "uint8",
              "name": "verdict",
              "type": "uint8"
            },
            {
              "internalType": "uint8",
              "name": "confidence",
              "type": "uint8"
            },
            {
              "internalType": "uint64",
              "name": "createdAt",
              "type": "uint64"
            },
            {
              "internalType": "uint96",
              "name": "stakeAmount",
              "type": "uint96"
            },
            {
              "internalType": "uint8",
              "name": "severity",
              "type": "uint8"
            },
            {
              "internalType": "uint8",
              "name": "status",
              "type": "uint8"
            },
            {
              "internalType": "uint8",
              "name": "isSeeded",
              "type": "uint8"
            }
          ],
          "internalType": "struct IRegistry.Antibody",
          "name": "",
          "type": "tuple"
        }
      ],
      "stateMutability": "view",
      "type": "function"
    },
    {
      "inputs": [
        {
          "internalType": "uint32",
          "name": "immSeq",
          "type": "uint32"
        }
      ],
      "name": "getAntibodyByImmSeq",
      "outputs": [
        {
          "components": [
            {
              "internalType": "bytes32",
              "name": "primaryMatcherHash",
              "type": "bytes32"
            },
            {
              "internalType": "bytes32",
              "name": "evidenceCid",
              "type": "bytes32"
            },
            {
              "internalType": "bytes32",
              "name": "contextHash",
              "type": "bytes32"
            },
            {
              "internalType": "bytes32",
              "name": "embeddingHash",
              "type": "bytes32"
            },
            {
              "internalType": "bytes32",
              "name": "attestation",
              "type": "bytes32"
            },
            {
              "internalType": "address",
              "name": "publisher",
              "type": "address"
            },
            {
              "internalType": "uint64",
              "name": "stakeLockUntil",
              "type": "uint64"
            },
            {
              "internalType": "uint32",
              "name": "immSeq",
              "type": "uint32"
            },
            {
              "internalType": "address",
              "name": "reviewer",
              "type": "address"
            },
            {
              "internalType": "uint64",
              "name": "expiresAt",
              "type": "uint64"
            },
            {
              "internalType": "uint8",
              "name": "abType",
              "type": "uint8"
            },
            {
              "internalType": "uint8",
              "name": "flavor",
              "type": "uint8"
            },
            {
              "internalType": "uint8",
              "name": "verdict",
              "type": "uint8"
            },
            {
              "internalType": "uint8",
              "name": "confidence",
              "type": "uint8"
            },
            {
              "internalType": "uint64",
              "name": "createdAt",
              "type": "uint64"
            },
            {
              "internalType": "uint96",
              "name": "stakeAmount",
              "type": "uint96"
            },
            {
              "internalType": "uint8",
              "name": "severity",
              "type": "uint8"
            },
            {
              "internalType": "uint8",
              "name": "status",
              "type": "uint8"
            },
            {
              "internalType": "uint8",
              "name": "isSeeded",
              "type": "uint8"
            }
          ],
          "internalType": "struct IRegistry.Antibody",
          "name": "",
          "type": "tuple"
        }
      ],
      "stateMutability": "view",
      "type": "function"
    },
    {
      "inputs": [
        {
          "internalType": "uint256",
          "name": "limit",
          "type": "uint256"
        }
      ],
      "name": "getOldestExpiredStakes",
      "outputs": [
        {
          "internalType": "bytes32[]",
          "name": "",
          "type": "bytes32[]"
        }
      ],
      "stateMutability": "view",
      "type": "function"
    },
    {
      "inputs": [
        {
          "internalType": "address",
          "name": "publisher",
          "type": "address"
        }
      ],
      "name": "getPublisherStats",
      "outputs": [
        {
          "components": [
            {
              "internalType": "uint128",
              "name": "totalStaked",
              "type": "uint128"
            },
            {
              "internalType": "uint128",
              "name": "totalEarned",
              "type": "uint128"
            },
            {
              "internalType": "uint64",
              "name": "publishedCount",
              "type": "uint64"
            },
            {
              "internalType": "uint64",
              "name": "slashedCount",
              "type": "uint64"
            }
          ],
          "internalType": "struct IRegistry.PublisherStats",
          "name": "",
          "type": "tuple"
        }
      ],
      "stateMutability": "view",
      "type": "function"
    },
    {
      "inputs": [
        {
          "internalType": "uint32",
          "name": "",
          "type": "uint32"
        }
      ],
      "name": "immSeqToKeccakId",
      "outputs": [
        {
          "internalType": "bytes32",
          "name": "",
          "type": "bytes32"
        }
      ],
      "stateMutability": "view",
      "type": "function"
    },
    {
      "inputs": [],
      "name": "nextImmSeq",
      "outputs": [
        {
          "internalType": "uint32",
          "name": "",
          "type": "uint32"
        }
      ],
      "stateMutability": "view",
      "type": "function"
    },
    {
      "inputs": [],
      "name": "owner",
      "outputs": [
        {
          "internalType": "address",
          "name": "",
          "type": "address"
        }
      ],
      "stateMutability": "view",
      "type": "function"
    },
    {
      "inputs": [
        {
          "components": [
            {
              "internalType": "uint8",
              "name": "abType",
              "type": "uint8"
            },
            {
              "internalType": "uint8",
              "name": "flavor",
              "type": "uint8"
            },
            {
              "internalType": "uint8",
              "name": "verdict",
              "type": "uint8"
            },
            {
              "internalType": "uint8",
              "name": "confidence",
              "type": "uint8"
            },
            {
              "internalType": "uint8",
              "name": "severity",
              "type": "uint8"
            },
            {
              "internalType": "bytes32",
              "name": "primaryMatcherHash",
              "type": "bytes32"
            },
            {
              "internalType": "bytes32",
              "name": "evidenceCid",
              "type": "bytes32"
            },
            {
              "internalType": "bytes32",
              "name": "contextHash",
              "type": "bytes32"
            },
            {
              "internalType": "bytes32",
              "name": "embeddingHash",
              "type": "bytes32"
            },
            {
              "internalType": "bytes32",
              "name": "attestation",
              "type": "bytes32"
            },
            {
              "internalType": "uint64",
              "name": "expiresAt",
              "type": "uint64"
            },
            {
              "internalType": "address",
              "name": "reviewer",
              "type": "address"
            },
            {
              "internalType": "bytes32",
              "name": "auxiliaryKey",
              "type": "bytes32"
            }
          ],
          "internalType": "struct IRegistry.PublishParams",
          "name": "params",
          "type": "tuple"
        }
      ],
      "name": "publish",
      "outputs": [
        {
          "internalType": "bytes32",
          "name": "keccakId",
          "type": "bytes32"
        },
        {
          "internalType": "uint32",
          "name": "immSeq",
          "type": "uint32"
        }
      ],
      "stateMutability": "nonpayable",
      "type": "function"
    },
    {
      "inputs": [],
      "name": "renounceOwnership",
      "outputs": [],
      "stateMutability": "nonpayable",
      "type": "function"
    },
    {
      "inputs": [
        {
          "components": [
            {
              "internalType": "uint8",
              "name": "abType",
              "type": "uint8"
            },
            {
              "internalType": "uint8",
              "name": "flavor",
              "type": "uint8"
            },
            {
              "internalType": "uint8",
              "name": "verdict",
              "type": "uint8"
            },
            {
              "internalType": "uint8",
              "name": "confidence",
              "type": "uint8"
            },
            {
              "internalType": "uint8",
              "name": "severity",
              "type": "uint8"
            },
            {
              "internalType": "bytes32",
              "name": "primaryMatcherHash",
              "type": "bytes32"
            },
            {
              "internalType": "bytes32",
              "name": "evidenceCid",
              "type": "bytes32"
            },
            {
              "internalType": "bytes32",
              "name": "contextHash",
              "type": "bytes32"
            },
            {
              "internalType": "bytes32",
              "name": "embeddingHash",
              "type": "bytes32"
            },
            {
              "internalType": "bytes32",
              "name": "attestation",
              "type": "bytes32"
            },
            {
              "internalType": "uint64",
              "name": "expiresAt",
              "type": "uint64"
            },
            {
              "internalType": "address",
              "name": "reviewer",
              "type": "address"
            },
            {
              "internalType": "bytes32",
              "name": "auxiliaryKey",
              "type": "bytes32"
            }
          ],
          "internalType": "struct IRegistry.PublishParams",
          "name": "params",
          "type": "tuple"
        }
      ],
      "name": "seedAntibody",
      "outputs": [
        {
          "internalType": "bytes32",
          "name": "keccakId",
          "type": "bytes32"
        },
        {
          "internalType": "uint32",
          "name": "immSeq",
          "type": "uint32"
        }
      ],
      "stateMutability": "nonpayable",
      "type": "function"
    },
    {
      "inputs": [
        {
          "internalType": "bytes32",
          "name": "antibodyId",
          "type": "bytes32"
        }
      ],
      "name": "slash",
      "outputs": [],
      "stateMutability": "nonpayable",
      "type": "function"
    },
    {
      "inputs": [],
      "name": "stakeHead",
      "outputs": [
        {
          "internalType": "uint256",
          "name": "",
          "type": "uint256"
        }
      ],
      "stateMutability": "view",
      "type": "function"
    },
    {
      "inputs": [],
      "name": "stakeTail",
      "outputs": [
        {
          "internalType": "uint256",
          "name": "",
          "type": "uint256"
        }
      ],
      "stateMutability": "view",
      "type": "function"
    },
    {
      "inputs": [],
      "name": "sweepExpired",
      "outputs": [
        {
          "internalType": "uint256",
          "name": "",
          "type": "uint256"
        }
      ],
      "stateMutability": "nonpayable",
      "type": "function"
    },
    {
      "inputs": [
        {
          "internalType": "address",
          "name": "newOwner",
          "type": "address"
        }
      ],
      "name": "transferOwnership",
      "outputs": [],
      "stateMutability": "nonpayable",
      "type": "function"
    },
    {
      "inputs": [],
      "name": "treasuryBalance",
      "outputs": [
        {
          "internalType": "uint256",
          "name": "",
          "type": "uint256"
        }
      ],
      "stateMutability": "view",
      "type": "function"
    },
    {
      "inputs": [],
      "name": "usdc",
      "outputs": [
        {
          "internalType": "contract IERC20",
          "name": "",
          "type": "address"
        }
      ],
      "stateMutability": "view",
      "type": "function"
    },
    {
      "inputs": [
        {
          "internalType": "uint256",
          "name": "amount",
          "type": "uint256"
        }
      ],
      "name": "withdraw",
      "outputs": [],
      "stateMutability": "nonpayable",
      "type": "function"
    },
    {
      "inputs": [
        {
          "internalType": "uint256",
          "name": "amount",
          "type": "uint256"
        },
        {
          "internalType": "address",
          "name": "to",
          "type": "address"
        }
      ],
      "name": "withdrawTreasury",
      "outputs": [],
      "stateMutability": "nonpayable",
      "type": "function"
    }
  ],
  "bytecode": "0x60a03461011757601f620022dc38819003918201601f19168301916001600160401b0383118484101761011b5780849260209460405283398101031261011757516001600160a01b03808216918290036101175733156100ff575f543360018060a01b03198216175f55604051913391167f8be0079c531659141344cd1fd0a4f28419497f9722a3daafe3b4186f6b6457e05f80a360017f9b779b17422d0df92223018b32b4d1fa46e071723d6817e2486d003becc55f005581156100f057506080526040516121ac90816200013082396080518181816103c801528181611747015281816119520152611a330152f35b63d92e233d60e01b8152600490fd5b604051631e4fbdf760e01b81525f6004820152602490fd5b5f80fd5b634e487b7160e01b5f52604160045260245ffdfe6080806040526004361015610012575f80fd5b5f3560e01c9081630d40161d14611d54575080631c72c16714611b1357806320ac21df146116bd57806327e235e314611adb5780632a48406914611abe5780632ad2ea8114611a835780632cd9f72b146119b55780632e1a7d4d14611905578063306b0a01146118e8578063313dab20146118cb5780633504cfbc146117ae578063380e473a146117765780633e413bee1461173257806345045575146116fa57806351e7630d146116d95780635fb3cf28146116bd578063677ae8d8146116a25780636789213314610fe5578063715018a614610f8e57806373d6c8e514610f715780638da5cb5b14610f4a5780639db6483414610f2d578063a6bdc8d314610ed7578063a8ab451514610c8b578063b52e872c14610bd3578063b64b56f2146104cd578063b6b55f25146103a4578063c5407ee214610381578063e1a4521814610365578063f06ea2b914610349578063f2fde38b146102c45763f415ed141461017c575f80fd5b346102c05760203660031901126102c057600435610198612060565b6101a0611e8a565b5f8181526001602052604090206005810180546001600160a01b039392908416156102ae5760070180549360ff8560a81c1661029c577f849bfe01cc0525908f96ead761cb3508f0aab2b2394ed49ddc78c3ccc76ace5e926020926001600160601b038760401c1696600160a91b9075ff00ffffffffffffffffffffffff0000000000000000191617905561023786600854611da6565b600855818154165f5260048352600160405f2001805467ffffffffffffffff60401b60016001600160401b038360401c160160401b169067ffffffffffffffff60401b1916179055541693604051908152a360015f8051602061215783398151915255005b604051634d7613bb60e11b8152600490fd5b604051631f56467360e21b8152600490fd5b5f80fd5b346102c05760203660031901126102c0576102dd611d83565b6102e5612060565b6001600160a01b03908116908115610331575f54826001600160601b0360a01b8216175f55167f8be0079c531659141344cd1fd0a4f28419497f9722a3daafe3b4186f6b6457e05f80a3005b604051631e4fbdf760e01b81525f6004820152602490fd5b346102c0575f3660031901126102c0576020604051611f408152f35b346102c0575f3660031901126102c05760206040516127108152f35b346102c0575f3660031901126102c057602063ffffffff60095416604051908152f35b346102c05760203660031901126102c0576004356103c0611e8a565b80156104bb577f0000000000000000000000000000000000000000000000000000000000000000604051906323b872dd60e01b5f5233600452306024528260445260205f60648180855af160015f511481161561049c575b826040525f6060521561047e5782335f52600360205260405f2061043d828254611da6565b90556040519081527f2da466a7b24304f47e87fa2e1e5a81b9831ce54fec19055ce277ca2f39ba42c460203392a260015f8051602061215783398151915255005b635274afe760e01b82526001600160a01b0316600482015260249150fd5b60018115166104b257813b15153d151616610418565b823d5f823e3d90fd5b604051631f2a200560e01b8152600490fd5b346102c0576101a03660031901126102c0576104e7612060565b6104ef611e8a565b60043560ff811681036102c057600460ff821611610bc15760443560ff811681036102c057600160ff821611610baf5760643560ff811681036102c057606460ff821611610b9d576084359260ff841684036102c057606460ff851611610b8b576024359060ff821682036102c05761056c3360a4358484612109565b5f818152600160205260409020600501549092906001600160a01b0316610b79576009549463ffffffff80871614610b655763ffffffff19861663ffffffff8781166001011617600955610164356001600160a01b03811690036102c057610164356001600160a01b0316610b5c57335b6001600160401b03610144351661014435036102c05760ff610a79968163ffffffff9a8a8c6001816040519361061285611db3565b60a435855260c435602086015260e43560408601526101043560608601526101243560808601523360a08601525f60c08601528183818316011660e0860152828060a01b038a166101008601526001600160401b036101443516610120860152868d16610140860152868c16610160860152868b166101808601528688166101a08601526001600160401b0342166101c08601525f6101e08601528686166102008601525f610220860152826102408601528d5f5282602052600760405f2086518155602087015185820155604087015160028201556060870151600382015560808701516004820155848060a01b0360a0880151166001600160601b0360a01b60058301541617600582015561075b6001600160401b0360c08901511660058301908154906001600160401b0360a01b9060a01b16906001600160401b0360a01b1916179055565b60e08781015160058301805488841b89900390811692881690931b9190911790556101008801516006830180546101208b015167ffffffffffffffff60a01b1960a08b811b8c900395909516166001600160e01b031990921691909117921b67ffffffffffffffff60a01b16919091178155906101408901519082548c60e81b6101608c015160e81b16908d60f01b6101808d015160f01b16928c8f6101a09060f81b91015160f81b16948f60e01b9060e01b169116171717179055016102406001600160401b036101c088015116966001600160401b031997888454161783556108756001600160601b036101e0830151168490600160401b600160a01b0382549160401b1690600160401b600160a01b031916179055565b610200810151835461022083015160ff60a81b908d1660a81b16918c1660a090811b908d901b199091161760ff60a81b191617835501518154908960b01b9060b01b16908960b01b19161790551601165f5260026020528960405f2055335f526004602052600160405f2080546001600160801b038116906001600160801b03191617815501908154906001600160401b036001818416011691161790558160405196818a168852818916602089015216604087015216606085015216608083015260018060a01b031660a082015260a43560c082015260c43560e082015260e43561010082015261010435610120820152610124356101408201525f6101608201525f6101808201526001600160401b0361014435166101a08201526001600160401b0342166101c082015260016101e08201523390847f8006f18d06959fa3d8e542b17bbfc9dad375f9784fc3c8e7b70282b3d2ffb4e96102008a6001818c16011693a4610184359160ff8116610a7d575033918391506001600160a01b03167f98548f21216c59d851e45f9e7c909f5220f9f95fc090c2f5d55ddb8cf789c54c5f80a45b600160405194848183818998160116847f9e112f95582969df72d4f17c1c40e099f37f2c9aec3ba9e8fd3750cfb046141f5f80a35f8051602061215783398151915283905592855263ffffffff9216011660208301526040820190565b0390f35b60ff8116600103610abb5750508133918660e01b167fc5ffeeb71edb47209bd883b9f8ab2a8526427eebfa499fcecf07344810340fcc5f80a4610a1c565b60ff8116600203610af45750508133917f73747dd92ca6706c09bd3a458b063898fefb763a2607f1a64410827c7efb49795f80a4610a1c565b60ff16600303610b2b57508133917fdb5d95743e162514b43e7267d4bdefb177d601cdbbb9f1cdef34f3f63c47f5915f80a4610a1c565b90508160ff3392167f6c44081501caf80ccdb442b36a9f3079ef6abb8a27040baec8d6942c9fe50c0c5f80a4610a1c565b610164356105dd565b634e487b7160e01b5f52601160045260245ffd5b604051637d8c8a7560e01b8152600490fd5b604051630f7fcb2960e21b8152600490fd5b604051630936dac760e11b8152600490fd5b604051637de75f3960e11b8152600490fd5b60405163027d661160e21b8152600490fd5b346102c05760203660031901126102c057610bec611d83565b5f6060604051610bfb81611dcf565b828152826020820152826040820152015260018060a01b03165f526004602052608060405f20604051610c2d81611dcf565b8154906001600160801b03916001838216948584526020840192871c83520154916001600160401b0393849283606060408501948288168652019560401c168552604051968752511660208601525116604084015251166060820152f35b346102c05760203660031901126102c05760043563ffffffff81168091036102c057610cb5611e01565b505f52600260205260405f20545f526001602052610a7960405f2060405190610cdd82611db3565b80548252600181015460208301526002810154604083015260038101546060830152600481015460808301526005810154600760018060a01b039283831660a08601526001600160401b0392838160a01c1660c087015260e01c60e08601526006810154938416610100860152828460a01c1661012086015260ff93848160e01c16610140870152848160e81c16610160870152848160f01c1661018087015260f81c6101a086015201549081166101c08401526001600160601b038160401c166101e0840152818160a01c16610200840152818160a81c1661022084015260b01c1661024082015260405191829182919091610260810192805182526020810151602083015260408101516040830152606081015160608301526080810151608083015260a081015160018060a01b0380911660a084015260c0820151906001600160401b0380921660c085015263ffffffff60e08401511660e0850152610100908184015116908401526101208181840151169084015261014090818301519160ff8093169085015261016082818501511690850152610180828185015116908501526101a0828185015116908501526101c0908184015116908401526101e06001600160601b0381840151169084015261020081818401511690840152610220818184015116908401526102408092015116910152565b346102c05760803660031901126102c05760043560ff811681036102c05760243560ff811681036102c0576064356001600160a01b03811681036102c057602092610f259260443591612109565b604051908152f35b346102c0575f3660031901126102c0576020600654604051908152f35b346102c0575f3660031901126102c0575f546040516001600160a01b039091168152602090f35b346102c0575f3660031901126102c05760206040516203f4808152f35b346102c0575f3660031901126102c057610fa6612060565b5f80546001600160a01b0319811682556001600160a01b03167f8be0079c531659141344cd1fd0a4f28419497f9722a3daafe3b4186f6b6457e08280a3005b346102c0576101a03660031901126102c057610fff611e8a565b60043560ff811681036102c057600460ff821611610bc15760443560ff811681036102c057600160ff821611610baf5760643560ff811681036102c057606460ff821611610b9d576084359260ff841684036102c057606460ff851611610b8b576024359060ff821682036102c05761107c3360a4358484612109565b5f818152600160205260409020600501549092906001600160a01b0316610b7957335f52600360205260405f2054620f4240811061169057335f526003602052620f423f190160405f20556007545f198114610b6557600181016007555f5260056020528260405f20556009549463ffffffff86169563ffffffff8714610b655763ffffffff19166001870163ffffffff1617600955610164356001600160a01b0381168082036102c05761168b5750335b6001600160401b036203f4808142160111610b65576001600160401b03610144351661014435036102c05760ff610a79968160019a60405161116f81611db3565b60a435815260c435602082015260e43560408201526101043560608201526101243560808201523360a08201526001600160401b036203f480814216011660c082015263ffffffff8d8d011660e08201528c8060a01b0386166101008201526001600160401b0361014435166101208201528289166101408201528288166101608201528287166101808201528284166101a08201526001600160401b0342166101c0820152620f42406101e08201528282166102008201525f6102208201525f610240820152895f528c602052600760405f208251815560208301518f8201556040830151600282015560608301516003820155608083015160048201558e8060a01b0360a0840151166001600160601b0360a01b6005830154161760058201556112cd6001600160401b0360c08501511660058301908154906001600160401b0360a01b9060a01b16906001600160401b0360a01b1916179055565b60e0838101516005830180546001600160e01b031691831b6001600160e01b0319169190911790556101008401516101208501516101408601516101608701516101808801516101a08901516001600160a01b0390951660a09490941b67ffffffffffffffff60a01b1693909317918a1690941b1792881660e81b9290921791871660f01b9190911790861660f81b1760068201556101c0830151910180546101e08401516001600160a01b03199091166001600160401b03939093169290921760409290921b600160401b600160a01b031691909117815567ffffffffffffffff199161024090610200810151835461022083015160ff60a81b90891660a81b1691881660a090811b9089901b199091161760ff60a81b191617835501518154908560b01b9060b01b16908560b01b191617905563ffffffff8d8d01165f5260026020528960405f2055335f5260046020528c60405f2080546001600160801b03620f42408183160116906001600160801b03191617815501908154906001600160401b038f818416011691161790558160405196818a1688528189166020890152166040870152166060850152166080830152878060a01b031660a082015260a43560c082015260c43560e082015260e4356101008201526101043561012082015261012435610140820152620f42406101608201526001600160401b036203f48081421601166101808201526001600160401b0361014435166101a08201526001600160401b0342166101c08201525f6101e08201523390847f8006f18d06959fa3d8e542b17bbfc9dad375f9784fc3c8e7b70282b3d2ffb4e961020063ffffffff8b8b011693a4610184359160ff81166115a7575050813391868060a01b03167f98548f21216c59d851e45f9e7c909f5220f9f95fc090c2f5d55ddb8cf789c54c5f80a45b835f805160206121578339815191525560405193849301908390929163ffffffff6020916040840195845216910152565b60ff811687036115ea575033918391506001600160e01b0319167fc5ffeeb71edb47209bd883b9f8ab2a8526427eebfa499fcecf07344810340fcc5f80a4611576565b60ff81166002036116235750508133917f73747dd92ca6706c09bd3a458b063898fefb763a2607f1a64410827c7efb49795f80a4611576565b60ff1660030361165a57508133917fdb5d95743e162514b43e7267d4bdefb177d601cdbbb9f1cdef34f3f63c47f5915f80a4611576565b90508160ff3392167f6c44081501caf80ccdb442b36a9f3079ef6abb8a27040baec8d6942c9fe50c0c5f80a4611576565b61112e565b604051631e9acf1760e31b8152600490fd5b346102c0575f3660031901126102c057602060405160058152f35b346102c0575f3660031901126102c05760206040516107d08152f35b346102c0575f3660031901126102c0576020610f2560075460065490611d99565b346102c05760203660031901126102c057611713611e01565b506004355f526001602052610a7960405f2060405190610cdd82611db3565b346102c0575f3660031901126102c0576040517f00000000000000000000000000000000000000000000000000000000000000006001600160a01b03168152602090f35b346102c05760203660031901126102c05760043563ffffffff81168091036102c0575f526002602052602060405f2054604051908152f35b346102c0576020806003193601126102c057601f600435600754906117d66006548093611d99565b8082116118c3575b506117e881611dea565b91604051928419948591011683018381106001600160401b038211176118af5760405281835261181782611dea565b83860194013685375f5b82811061186b575050509060405192839281840190828552518091526040840192915f5b82811061185457505050500390f35b835185528695509381019392810192600101611845565b6118758183611da6565b5f5260059081875260405f2054855182101561189b5787826001941b8701015201611821565b634e487b7160e01b5f52603260045260245ffd5b634e487b7160e01b5f52604160045260245ffd5b9050846117de565b346102c0575f3660031901126102c0576020600854604051908152f35b346102c0575f3660031901126102c0576020604051620f42408152f35b346102c05760203660031901126102c057600435611921611e8a565b80156104bb57335f52600360205260405f2054818110611690578190335f5260036020520360405f205561197681337f000000000000000000000000000000000000000000000000000000000000000061208b565b6040519081527fb244b9a17ad633c6e83b7983ee04320484956a68ddbe96a0b70dfca1cf19d72360203392a260015f8051602061215783398151915255005b346102c05760403660031901126102c0576004356119d1611d6d565b6119d9612060565b6119e1611e8a565b6001600160a01b038116918215611a715780156104bb576008549081811161169057611a57817f41fdd680478135993bc53fb2ffaf9560951b57ef62ff6badd02b61e018b4f17f9481602095036008557f000000000000000000000000000000000000000000000000000000000000000061208b565b604051908152a260015f8051602061215783398151915255005b60405163d92e233d60e01b8152600490fd5b346102c0575f3660031901126102c057611a9b611e8a565b6020611aa5611eb9565b60015f8051602061215783398151915255604051908152f35b346102c0575f3660031901126102c0576020600754604051908152f35b346102c05760203660031901126102c0576001600160a01b03611afc611d83565b165f526003602052602060405f2054604051908152f35b346102c05760803660031901126102c057611b2c611d6d565b606435611b37611e8a565b5f90335f52600360205260405f2054926107d09384811061169057335f5260036020526107cf190160405f20555f600435611c0f575b159182611bf6575b6020946040519315845285840152604083015260443560608301526001600160401b034216608083015260018060a01b031690600435907f97580e4792ac35d694bf97300c86bd46fd8ac88d13d6fb1fe8f6d17221005d4360a03392a4611bda611eb9565b5060015f80516020612157833981519152556040519015158152f35b60085494808601809611610b6557600895909555611b75565b6004355f90815260016020526040902060058101546001600160a01b031680151580611d42575b80611d16575b611c48575b5050611b6d565b91509350805f52600360205260405f2090815461064092838201809211610b6557556008546101908101809111610b6557600855805f52600460205260405f2080546001600160801b038019858360801c0160801b169116179055600191600195600660018060a01b03910154166040519160018060a01b038616835260443560208401528660408401526060830152610190608083015260a082015233907f525a1f7ce27d3f3941efd8e3a5fe869b9a430ae6fced8bedda18c74379a22fb860c060043592a48580611c41565b506001600160401b03600683015460a01c168015908115611d38575b50611c3c565b9050421088611d32565b5060ff600783015460a81c1615611c36565b346102c0575f3660031901126102c05780606460209252f35b602435906001600160a01b03821682036102c057565b600435906001600160a01b03821682036102c057565b91908203918211610b6557565b91908201809211610b6557565b61026081019081106001600160401b038211176118af57604052565b608081019081106001600160401b038211176118af57604052565b6001600160401b0381116118af5760051b60200190565b60405190611e0e82611db3565b5f610240838281528260208201528260408201528260608201528260808201528260a08201528260c08201528260e08201528261010082015282610120820152826101408201528261016082015282610180820152826101a0820152826101c0820152826101e082015282610200820152826102208201520152565b5f805160206121578339815191526002815414611ea75760029055565b604051633ee5aeb560e01b8152600490fd5b5f9060065491600791600754935f916001600160401b0394854216925b60059081861080612057575b1561204957805f5260208281526040805f205490815f52600194858452815f2090878201549160ff8360a81c1661203557015490428d8360a01c1611611f905782879694928b6001600160601b037fc287fcb0cbeca6494725d12acb48169ab75b9f2ebacdbab2ba934fff043cfc2f948a99971c169160018060a01b031695865f5260038152835f20611f76848254611da6565b90558351928352820152a30195019501955b959493611ed6565b50505050509597505050935050505b60065581158015611fad5750565b60648302908382046064141715610b6557600854908181111561202e575080805b8161200a575b50506040519083825260208201527f7537aa47aecec6406c2e1be11be3669228806e1d56d46909fc20204f31598d8860403392a2565b03600855335f52600360205260405f20612025828254611da6565b9055805f611fd4565b8091611fce565b505050505050819097969701940194611f88565b959750505093505050611f9f565b50888110611ee2565b5f546001600160a01b0316330361207357565b60405163118cdaa760e01b8152336004820152602490fd5b60405163a9059cbb60e01b5f9081526001600160a01b039384166004526024949094529260209060448180855af160015f51148116156120ea575b83604052156120d457505050565b635274afe760e01b835216600482015260249150fd5b600181151661210057813b15153d1516166120c6565b833d5f823e3d90fd5b92909160ff60405193816020860196168652166040840152606083015260018060a01b031660808201526080815260a081018181106001600160401b038211176118af576040525190209056fe9b779b17422d0df92223018b32b4d1fa46e071723d6817e2486d003becc55f00a2646970667358221220c24bc74679e87b92697a6a4e5a22a9abe32c9991177155491f52e23f344d3d7764736f6c63430008180033",
  "linkReferences": {},
  "deployedLinkReferences": {},
  "immutableReferences": {
    "1784": [
      {
        "length": 32,
        "start": 968
      },
      {
        "length": 32,
        "start": 5959
      },
      {
        "length": 32,
        "start": 6482
      },
      {
        "length": 32,
        "start": 6707
      }
    ]
  },
  "inputSourceName": "project/contracts/Registry.sol",
  "buildInfoId": "solc-0_8_24-da0580ce0466a787927a1a435c0ca5c9b1b2b629"
}